:020000040800F2
:10000000200700208901000803140008250F0008BC
:10001000011400088F0200085D16000800000000AF
:10002000000000000000000000000000F7150008BC
:100030009102000800000000F5150008F9150008FD
:10004000A3010008A3010008A3010008A301000800
:10005000A3010008A3010008A3010008A3010008F0
:10006000A3010008A3010008A3010008A3010008E0
:10007000A3010008A3010008A3010008A3010008D0
:10008000A3010008A3010008A3010008A3010008C0
:10009000A3010008A3010008A3010008A3010008B0
:1000A000A3010008A3010008A3010008A3010008A0
:1000B000A3010008A3010008A3010008A301000890
:1000C000A3010008A3010008A3010008A301000880
:1000D000A3010008A3010008A3010008A301000870
:1000E000A3010008A3010008A301000800F002F822
:1000F00000F03AF80AA090E8000C82448344AAF188
:100100000107DA4501D100F02FF8AFF2090EBAE885
:100110000F0013F0010F18BFFB1A43F0010318473B
:10012000E41D0000041E0000103A24BF78C878C106
:10013000FAD8520724BF30C830C144BF04680C60ED
:10014000704700000023002400250026103A28BF35
:1001500078C1FBD8520728BF30C148BF0B60704739
:100160001FB51FBD10B510BD00F058F81146FFF7C0
:10017000F7FF01F085FA00F076F803B4FFF7F2FF1D
:1001800003BC00F07DF8000009488047094800479B
:10019000FEE7FEE7FEE7FEE7FEE7FEE7FEE7FEE737
:1001A000FEE7FEE704480549054A064B7047000094
:1001B0005B160008ED000008200100202007002049
:1001C00020030020200300204FF0000200B513465A
:1001D00094469646203922BFA0E80C50A0E80C5067
:1001E000B1F12001BFF4F7AF090728BFA0E80C5018
:1001F00048BF0CC05DF804EB890028BF40F8042B11
:1002000008BF704748BF20F8022B11F0804F18BF7D
:1002100000F8012B7047704770477047754600F033
:100220002BF8AE4605006946534620F00700854688
:1002300018B020B5FFF7B6FFBDE820404FF000062C
:100240004FF000074FF000084FF0000B21F00701BE
:10025000AC46ACE8C009ACE8C009ACE8C009ACE801
:10026000C0098D46704710B50446AFF300802046A4
:10027000BDE81040FFF781BF00487047C000002074
:1002800001491820ABBEFEE7260002007047FEE7DA
:10029000704772B6FEE7000070B5044600F004F93E
:1002A0000546601C02D004480078044400F0FCF8C5
:1002B000401BA042FAD370BD000000202DE9F84F8A
:1002C000DFF8B8910024A9F1040B23460F2709F1A8
:1002D000040AABF1040EC9E00125A5402A40AA4258
:1002E0007DD1674ED1F804C0ACEB0608B44532D0DE
:1002F00014DCBCF1030F3AD009DCBCF1000F2AD0AA
:10030000BCF1010F1CD0BCF1020F31D11DE0BCF1DA
:10031000110F17D0BCF1120F2AD119E0B8F5881FC0
:1003200019D006DCB8F5803F15D0B8F5801F1FD175
:1003300011E0B8F5001F0ED0B8F5041F18D10AE07F
:10034000CB6815E0CB681B1D12E0CB6808330FE0CB
:10035000CB680C330CE08B682BB1012B4FF00803FA
:1003600003D0456104E0042302E0056100E00023BE
:10037000FF2A01D8064601E000F104064FEA840591
:1003800001D9A5F12005D6F8008007FA05FC28EA76
:100390000C0803FA05F548EA0508C6F800804D6820
:1003A000ED0062D5374DAE6946F00106AE61AD692C
:1003B00024F0030605F001050095334D06EB050C0E
:1003C000DCF80850A607360F07FA06F825EA0805F4
:1003D000DFF8B880404503D14FF0000817E044E053
:1003E000DFF8AC80404502D14FF001080FE0DFF8A4
:1003F000A480404502D14FF0020808E0DFF8988061
:10040000404502D14FF0030801E04FF0040808FA1C
:1004100006F848EA0508CCF808804D68D9F800606D
:10042000ED024D4601D5164300E096432E604D681F
:10043000DAF80060AD02554601D5164300E0964358
:100440002E604D68DBF80060AD035D4601D51643B4
:1004500000E096432E604D68DEF80060ED037546BF
:1004600001D5164300E096432E60641C0D682A46B1
:10047000E5407FF431AFBDE8F88F0000080401408B
:10048000000011100010024000000140000801406F
:10049000000C014000100140001401400AB101614C
:1004A00070470904FBE700000148806870470000BE
:1004B0000000002070B5040025D094F83D00002510
:1004C00020B984F83C50204600F0E6F9242084F856
:1004D0003D002068016821F0010101602068016889
:1004E00041F4004101602068016821F4004101608D
:1004F00000F03EFB4D4A6168914201D84C4900E052
:100500004C49884201D2012070BD4B492368B0FBA1
:10051000F1F15E6826F03F060E435E606368934229
:1005200006D94FF4967359434FF47A73B1FBF3F144
:100530002368491C1E6A26F03F0631431962616830
:10054000914210D84900401EB0FBF1F2521CC2F398
:100550000B02042A01D2042022E0B0FBF1F0401C7F
:10056000C0F30B001CE0A268F2B301EBC10303EB84
:100570000116431EB3FBF6F35B1C43F480431B05DB
:1005800049D092B301EBC10202EB0111401EB0FB56
:10059000F1F0401CC0F30B0040F4804040F40040F8
:1005A0002168CA694CF6FF739A431043C861D4E9C5
:1005B000071001432068026822F0C0021143016065
:1005C000D4E9030101432068826848F2FF339A436B
:1005D00011438160D4E9050108432168CA6822F00B
:1005E000FF021043C86001E00EE016E020680168D9
:1005F00041F0010101602564202084F83D0025635D
:1006000084F83E50002070BD01EB4106431EB3FB51
:10061000F6F35B1CB3E70120C2E701EB4101401E8A
:10062000B0FBF1F0401CC0F30B00B7E7A08601005F
:1006300080841E0000093D0040420F002DE9F84F64
:100640001F4690468A460446DDF82890FFF72CFFA7
:10065000054694F83D0020287FD119230122404906
:100660002046009500F044FD002876D194F83C0027
:10067000012872D0012084F83C0020680168C90775
:1006800003D1016841F0010101602068016821F493
:1006900000610160212084F83D00102084F83E00B4
:1006A00000262664C4F824806785608D20852D4847
:1006B000E0622B464A465146204600F04BFC90B97A
:1006C000206841698069009036E02A464946204604
:1006D00000F0B4FD50B1206C042804D120680168FA
:1006E00041F4007101600120BDE8F88F606A216863
:1006F00000780861606A401C6062618D491E6185F6
:10070000218D491E89B2218522685369DB435B072D
:100710000BD451B100781061606A401C6062608D3A
:10072000401E6085208D401E20852A464946204671
:1007300000F0B2FC0028CED1208D0028C5D154F89D
:100740003D0B016841F400710160202004F81E098E
:10075000E67766770020C7E7FFE70220C4E70000DE
:10076000020010000000FFFF2DE9FF4F83B09A4602
:10077000DDE9119793460446DDF84080FFF794FECB
:10078000054694F83D0020287FD1192301224049D5
:100790002046009500F0ACFC002876D194F83C008F
:1007A000012872D0012084F83C0020680168C90744
:1007B00003D1016841F0010101602068016821F462
:1007C00000610160212084F83D00402084F83E0053
:1007D00000262664C4F82480A4F82A90608D208521
:1007E0002C48E062CDE9007553465A4620460499EC
:1007F00000F0FEFB70B930E02A463946204600F092
:100800001DFD58B1206C042804D12068016841F412
:1008100000710160012007B0BDE8F08F606A2168B7
:1008200000780861606A401C6062218D491E89B2AF
:100830002185628D521E628522685369DB435B0706
:100840000BD469B100781061606A401C6062208D31
:10085000401E2085608D401E6085208D0028CBD1F4
:100860002A463946204600F017FC0028CAD154F821
:100870003D0B016841F400710160202004F81E095D
:10088000E67766770020C6E7FFE70220C3E70000AF
:10089000020010000000FFFF30B585B0002100917C
:1008A0000191029103911E4D03681E4C12210322F7
:1008B0001D48AB4216D1A36943F00803A361A369A5
:1008C000039203F008030493C023CDE90031694685
:1008D000FFF7F4FCE06940F40010E061E06900F427
:1008E000001019E0114DAB4217D1A36943F0080382
:1008F000A361A369039203F0080304934FF44063D8
:10090000CDE900316946FFF7D9FCE06940F4800089
:10091000E061E06900F48000049005B030BD0000A3
:100920000054004000100240000C014000580040FC
:1009300002488168027811448160704700000020FD
:10094000074810B5016841F010010160032000F074
:1009500067F80F2000F006F800F024F8002010BD22
:100960000020024070B50D4D04464FF47A7128788E
:10097000B1FBF0F00A490968B1FBF0F000F0BEFAF3
:1009800048B9102C07D200222146501E00F028F84A
:1009900000206C6070BD012070BD000000000020D0
:1009A0000C0000200C4808B5816941F0010181610B
:1009B000816901F001010091C16941F08051C1617B
:1009C000C06900F0805000900448416821F0E06167
:1009D00041F00071416008BD00100240000001407C
:1009E000F0B40E4B1B680C46C3F30223C3F107059A
:1009F000042D00D90425191D072901D2002300E088
:100A0000DB1E012606FA05F1491E214099409E4051
:100A1000761E16403143F0BC00F021BE0CED00E024
:100A2000064900F0070208684FF6FF03184040EA45
:100A30000220034A10430860704700000CED00E0FC
:100A40000000FA052DE9F0470F46050061D0434E3E
:100A5000306800F00700B84209D2306820F0070083
:100A600038433060306800F00700B84251D1286840
:100A70003B4C810712D5400703D5606840F4E06025
:100A800060602878000703D5606840F460506060BB
:100A90006068A96820F0F000084360602878C0070B
:100AA00028D06868012810D02168022810D0890752
:100AB00000292EDA616821F0030101436160FFF72C
:100AC000F3FC804641F288390DE021688903EFE7A5
:100AD0008901EDE7FFF7E8FCA0EB0801494502D9E1
:100AE0000320BDE8F0876068696800F00C00B0EB97
:100AF000810FEFD1306800F00700B8420BD93068A1
:100B000020F0070038433060306800F00700B8423A
:100B100001D00120E5E72878400705D56068E9683D
:100B200020F4E060084360602878000706D560681C
:100B3000296920F4605040EAC100606000F028F8A4
:100B40006168084AC1F30311515CC8400649086056
:100B500006480068FFF706FF0020C2E700200240B9
:100B600000100240E61600080C00002004000020DF
:100B70000448054900684968044AC1F30221515CF0
:100B8000C84070470C00002000100240F616000814
:100B90000E4A51680E4801F00C03042B11D0082BAB
:100BA0000FD10C48C1F38343C903C05C0AD5516817
:100BB000084AC1F34041921E515C054A5043B0FBC4
:100BC000F1F07047044948437047000000100240AC
:100BD00000127A00D616000800093D002DE9F84FF2
:100BE000040070D02078C04DC00749D06868C0F3B9
:100BF0008100012807D06868C0F38100022809D16C
:100C00006868C00306D52868800339D56068002865
:100C1000E7D035E06068B0F5803F0BD010B1B0F59B
:100C2000A02F11D0286820F480302860286820F494
:100C3000802002E0286840F480302860606890B12D
:100C4000FFF732FC06460AE0286840F4802028605E
:100C5000F0E700BFFFF728FC801B642873D82868E2
:100C60008003F7D50CE0FFF71FFC064605E000BF48
:100C7000FFF71AFC801B6428F0D828688003F7D49B
:100C800020789A4E80074FF001094FF0000839D5BF
:100C9000686810F00C0F07D06868C0F38100022864
:100CA00009D16868C00306D42868800714D5206974
:100CB000012808D110E02069B0B1C6F80090FFF714
:100CC000F3FB074605E00AE1FFF7EEFBC01B022835
:100CD000C4D828688007F7D52868616920F0F80033
:100CE00040EAC10028600DE0C6F80080FFF7DCFB99
:100CF000074604E0FFF7D8FBC01B022823D828686A
:100D00008007F7D4207800072CD57948A169D9B19C
:100D1000C0F80090FFF7C8FB074604E0FFF7C4FBEC
:100D2000C01B02280FD8686A8007F7D571484FF4B6
:100D3000FA510068B0FBF1F0009000BF0098411E2E
:100D40000091FAD20EE080E0C0F80080FFF7ACFB23
:100D5000074604E0FFF7A8FBC01B022875D8686AA5
:100D60008007F7D42078400760D5E8690027C000E5
:100D700008D4E86940F08050E861E869012700F094
:100D8000805000905C480168C90513D4016883460F
:100D900041F480710160FFF787FB824606E000BFE7
:100DA000FFF782FBA0EB0A0064284ED8DBF80000B6
:100DB000C005F5D5E06801280AD008B1052813D090
:100DC000286A20F001002862286A20F0040002E06E
:100DD000286A40F001002862E06841F2883B98B13F
:100DE000FFF762FB82460BE0286A40F004002862AD
:100DF000EEE700BFFFF758FBA0EB0A0159455AD8B0
:100E0000286A8007F6D50CE0FFF74EFB824605E026
:100E1000FFF74AFBA0EB0A0159454CD8286A800726
:100E2000F6D41FB1E86920F08050E861E06988B32A
:100E30006968C1F38101022944D00228C6F86080A4
:100E400004D0FFF731FB044638E034E0FFF72CFB19
:100E5000074604E0FFF728FBC01B02282BD82868B0
:100E60008001F7D4206AB0F5803F05D16868A16899
:100E700020F4003008436860D4E908010843696839
:100E800021F4741108436860C6F86090FFF70CFB0A
:100E9000044606E025E000BFFFF706FB001B022822
:100EA00009D828688001F7D51BE000BFFFF7FCFADE
:100EB000001B022802D90320BDE8F88F28688001B2
:100EC000F4D40EE00128F7D06868226A00F480317B
:100ED000914204D1616A00F47010884201D001206F
:100EE000EAE70020E8E7000000100240000042426C
:100EF000800442420C0000200070004010B5401EEB
:100F0000B0F1807F01D3012010BD4FF0E02460617B
:100F10000F21601700F0A3FB0020A06107202061D3
:100F2000002010BDFEE701684A69D24352050FD484
:100F30006FF480624A61002140F8301F2022427322
:100F40008173026942F0040202610173012070475B
:100F500000207047F8B50446C06A1E460D46174685
:100F6000082807D0012805D010F5803F02D0206B5B
:100F7000122804D12068016841F480710160134691
:100F800000224FF001112046009600F0B1F840B168
:100F900020680068C00502D54FF40070206403206B
:100FA000F8BD2069B0F5804F0ED00620216800EA18
:100FB000D51040F0F000086133463A460B49204610
:100FC00000F0DEF878B902E005F0FE0000E0E8B2DB
:100FD00021680861054933463A46891F204600F0DA
:100FE000CFF80028DCD00120F8BD00000800010087
:100FF0002DE9F843044600680D46DDE908970168CD
:101000009846164641F4807101604B4600224FF02D
:1010100001112046009700F06BF848B12068006885
:10102000C00502D54FF4007020640320BDE8F883AA
:10103000216805F0FE0008613B464A4615492046F6
:1010400000F09EF888B920684169806900903A46AE
:101050004946204600F0F2F848B1206C042804D13B
:101060002068016841F4007101600120DEE7F5B2FB
:10107000B8F1010F09D02168300A08613A464946A3
:10108000204600F0DBF80028E7D120680561002049
:10109000CCE700000200010070B516460D4604467C
:1010A0001EE02046FFF73FFF08B1012070BD681C1D
:1010B00016D0FFF7F9F9801BA84200D885B920683F
:1010C0004069C04340070BD5002044F8300F202171
:1010D0006173A073216941F0200121612073E4E76D
:1010E00020684069C0434007DBD4002070BD000089
:1010F0002DE9F047984617460D460446C1F30746CA
:10110000DDF820902AE000BFB8F1FF3F26D0FFF7BE
:10111000CBF9A0EB0901414502D8B8F1000F1DD170
:101120002068012E16D0806925EA00000004000C1A
:1011300012D00020B84211D1002044F8300F2021F5
:101140006173A073216941F02001216120730120A6
:10115000BDE8F0874069E7E70120EBE72068012E52
:101160000AD0806925EA00000004000C06D00020A7
:10117000B842C9D00020EBE74069F3E70120F7E768
:101180002DE9F047984616460D4604464FF00009F3
:101190004FF0200AC1F3074723E020684069C043AD
:1011A000400515D42068016841F400710160216890
:1011B0006FF480604861C4F8309084F83DA084F8F2
:1011C0003E90216C41F00401216484F83C9021E0C0
:1011D000701C06D0FFF768F9A0EB0800B04203D8F6
:1011E00016B1012F1FD021E02068012F15D0806992
:1011F00025EA00000004000C18D000BF44F8309F1E
:1012000084F80DA084F80E90216941F0200121613D
:1012100084F80C900120BDE8F087406925EA0000C1
:101220000004000CEAD12068406901E02068806970
:1012300025EA00000004000CAFD1ECE770B51646BB
:101240000D4604461EE02046FFF76DFE08B1012062
:1012500070BD681C16D0FFF727F9801BA84200D884
:1012600085B920684069C04300060BD5002044F8CA
:10127000300F20216173A073216941F020012161A9
:101280002073E4E720684069C0430006DBD40020F7
:1012900070BD000010B506484FF4005309B100229C
:1012A00000E001221946FFF7F9F8002010BD000008
:1012B000001001402DE9FF410F480024661E006820
:1012C00003AD0127CDF80C0005EB4400401CCDE92F
:1012D0000007029615F814200123B4210748FFF7F0
:1012E00043FA18B1002004B0BDE8F081641CE4B2F8
:1012F000022CE9D30120F6E7001F00086C00002053
:1013000070B586B000241C480094019402940394A4
:10131000816941F010018161816901F0100104913E
:10132000816941F020018161816901F0200104910E
:10133000816941F008018161816901F0080104912E
:10134000816941F00401816180690C4E00F0040064
:101350004FF400550490002229463046FFF79EF8CE
:1013600001200095CDE90104022003906946304632
:10137000FEF7A4FF06B070BD00100240001001404F
:101380000D4810B50B4901600C49416000214FF434
:1013900080428160C0E9031241618161C1610162E3
:1013A000FFF788F8002803D0BDE81040FEF771BFB2
:1013B00010BD00000054004018000020A08601006D
:1013C0000D4810B50B4901600C49416000214FF4F4
:1013D00080428160C0E9031241618161C1610162A3
:1013E000FFF768F8002803D0BDE81040FEF751BFB2
:1013F00010BD0000005800406C000020A0860100D5
:10140000FEE7FEE710B5A0B0002480216846FEF795
:10141000DBFE0021204600F0A9F88021684600F09C
:10142000D9F8641CE4B2082CF3D320B010BD00003E
:1014300010B50224202000F0B9F8204600F0B6F8DC
:101440001F4804703F24A82000F0B0F8204600F0A8
:10145000ADF80024D32000F0A9F8204600F0A6F84B
:10146000402000F0A3F8A12000F0A0F8C82000F070
:101470009DF80021084600F063F87F24812000F0E9
:1014800095F8204600F092F8A42000F08FF8A620EE
:1014900000F08CF8D52000F089F8802000F086F864
:1014A0008D2000F083F8142000F080F80021012046
:1014B00000F046F8BDE81040AF2000F077B800001B
:1014C000100000202DE9F04117460E460446002585
:1014D0000BE03146204600F00FF8641CE4B20F2CFC
:1014E00002D90024B61CF6B26D1C7A5D002AF0D138
:1014F0002846BDE8F081000070B51646C206150EFC
:101500000C46072918D80F2816D82946204600F07F
:101510002DF80A48082100EB0610064600F05AF89C
:10152000641CE0B2294600F021F806F10800BDE88D
:101530007040082100F04EB870BD0000FE16000893
:1015400070B50C46050001D0012D0ED10CB1012C57
:101550000BD1DA2000F02AF8280100EB4410BDE896
:101560007040801CC0B200F021B870BD70B50E4D47
:101570000C462978022905D1072803D8B030C0B21B
:1015800000F014F8287802280CD17F2C0AD804F037
:101590000F0000F00BF8102000EB1410BDE87040B5
:1015A00000F004B870BD0000100000201CB5002140
:1015B0008DF804108DF805004FF4FA70009004487F
:1015C000022301AA78214068FFF738F81CBD00000B
:1015D000100000200EB54FF4FA728DE807000448A1
:1015E0000123402278214068FFF7BEF80EBD0000BD
:1015F0001000002070477047FFF79AB930B58FB0E0
:1016000028216846FEF7E0FD14210AA8FEF7DCFD5C
:1016100001210804CDE90010002402940225049160
:10162000CDE907504FF4E01009906846FFF7D6FA6D
:1016300008B172B6FEE70F20CDE90A054FF48060CD
:10164000CDE90C4002210AA80E94FFF7FBF900280F
:1016500001D072B6FEE70FB030BD7047FEE7090754
:10166000090E002804DB00F1E02080F80014704728
:1016700000F00F0000F1E02080F8141D704700001A
:10168000FFF75EF9FFF7BAFFFFF73AFEFFF798FEA4
:10169000FFF776FEFFF7CCFEFFF7B4FEFFF70AFE7A
:1016A00001210846FFF7F6FD4FF4FA742046FEF7D5
:1016B000F3FD00210120FFF7EDFD2046FEF7ECFDD4
:1016C000002102A20846FFF7FDFEF9E77366696193
:1016D0006E660000010202030405060708090A0BF2
:1016E0000C0D0E0F101000000000000000000102A1
:1016F00003040607080900000000010203040000BB
:10170000000000000000000000000000000000FEDB
:10171000020202020202003F2020202020200000BE
:10172000000000000000000000000000000000FEBB
:10173000020202020202003F20202020202000FEA0
:10174000020202020202003F20202020202000FE90
:10175000020202020202003F20202020202000FE80
:10176000020202020202003F20202020202000FE70
:10177000020202020202003F20202020202000FE60
:10178000020202020202003F20202020202000004E
:101790000000000000000000000000000000000049
:1017A0000000000000000000000000000000000039
:1017B000000000000000000000000000000000FE2B
:1017C000020202020202003F20202020202000FE10
:1017D000020202020202003F20202020202000FE00
:1017E000020202020202003F20202020202000FEF0
:1017F000020202020202003F20202020202000FEE0
:10180000020202020202003F20202020202000FECF
:10181000020202020202003F20202020202000FEBF
:10182000020202020202003F20202020202000FEAF
:10183000020202020202003F20202020202000FE9F
:10184000020202020202003F20202020202000FE8F
:10185000020202020202003F20202020202000FE7F
:10186000020202020202003F20202020202000FE6F
:10187000020202020202003F20202020202000FE5F
:10188000020202020202003F20202020202000FE4F
:10189000020202020202003F20202020202000FE3F
:1018A000020202020202003F20202020202000FE2F
:1018B000020202020202003F20202020202000001D
:1018C0000000000000000000000000000000000018
:1018D0000000000000000000000000000000000008
:1018E00000000000000000000000000000000000F8
:1018F00000000000000000000000000000000000E8
:1019000000000000000000000000000000000000D7
:1019100000F800000000000000330000000000108C
:101920000C02100C0200000000000000000000404B
:10193000C07840C0780000043F04043F04000070F9
:101940008888FC08300000182020FF211E00F008C5
:10195000F0806018000000310C031E211E0000F012
:101960000888700000001E21232C19272110001266
:101970000E00000000000000000000000000000059
:1019800000E01804020000000007182040000002D8
:101990000418E0000000004020180700000040404C
:1019A00080F0804040000202010F010202000000AE
:1019B0000000E0000000000101010F010101000032
:1019C0000000000000000090700000000000000017
:1019D0000000000000000001010101010100000001
:1019E0000000000000000030300000000000000097
:1019F0000000C0380400006018070000000000E08C
:101A000010080810E000000F102020100F00000048
:101A10001010F8000000000020203F20200000707F
:101A200008080808F0000030282422213000003087
:101A30000808088870000018202121221C000000DE
:101A4000804030F8000000060524243F242400F8DC
:101A50008888880808000019202020110E0000E066
:101A6000108888900000000F112020201F0000180F
:101A70000808886818000000003E0100000000709F
:101A8000880808887000001C222121221C0000F018
:101A900008080810E0000001122222110F000000C7
:101AA00000C0C00000000000003030000000000056
:101AB000008000000000000000E0000000000000C6
:101AC000804020100800000102040810200000409F
:101AD00040404040400000020202020202000008B2
:101AE0001020408000000020100804020100007057
:101AF0004808088870000000003037000000C0303F
:101B0000C828E810E000071827282F281700000031
:101B1000C038E0000000203C23020227382008F8EB
:101B2000888888700000203F202020110E00C030DF
:101B3000080808083800071820202010080008F8B6
:101B400008080810E000203F202020100F0008F8AF
:101B50008888E8081000203F20202320180008F87B
:101B60008888E8081000203F200003000000C030F3
:101B700008080838000007182020221E020008F874
:101B800008000008F808203F210101213F2000083B
:101B900008F8080800000020203F20200000000076
:101BA0000808F8080800C08080807F00000008F85E
:101BB00088C028180800203F20012638200008F897
:101BC000080000000000203F20202020300008F8FE
:101BD000F800F8F80800203F013E013F200008F817
:101BE00030C00008F808203F200007183F00E01030
:101BF00008080810E0000F10202020100F0008F83F
:101C000008080808F000203F210101010000E01051
:101C100008080810E0000F10282830504F0008F87E
:101C2000888888887000203F2000030C30200070D6
:101C30008808080838000038202121221C001808D4
:101C400008F8080818000000203F2000000008F8ED
:101C500008000008F808001F202020201F00087836
:101C6000880000C83808000007380E01000008F896
:101C700000F800F8080000033E013E0300000818C9
:101C800068808068180820302C03032C3020083826
:101C9000C800C83808000000203F200000001008DD
:101CA0000808C83808002038262120201800000025
:101CB00000FE020202000000007F404040000004DD
:101CC00038C000000000000000010638C00000021B
:101CD0000202FE000000004040407F0000000000C3
:101CE00004020204000000000000000000000000E8
:101CF00000000000000080808080808080800002E2
:101D000002040000000000000000000000000000CD
:101D100080808000000000192424123F200010F071
:101D2000008080000000003F112020110E00000004
:101D3000008080800000000E112020201100000093
:101D400080808090F000001F202020103F200000A5
:101D5000808080800000001F24242424170000803D
:101D600080E0909020000020203F20200000000014
:101D7000808080808000006B94949493600010F0C9
:101D8000008080800000203F210000203F20008054
:101D90009898000000000020203F20200000000054
:101DA00000809898000000C08080807F000010F0C4
:101DB000000080808000203F240629302000001091
:101DC00010F8000000000020203F2020000080804C
:101DD000808080808000203F20003F20003F808066
:101DE000008080800000203F210000203F20000074
:101DF000808080800000001F202020201F00808025
:101E000000808000000080FF912020110E00000063
:101E1000008080008000000E11202091FF808080D3
:101E200080008080800020203F21200001000000F1
:101E300080808080800000332424242419000080C6
:101E400080E0808000000000001F202010008080C3
:101E5000000000808000001F202020103F20808094
:101E600080008080800000030C300C030000808024
:101E7000008080008080010E300C07380601008051
:101E80008080008080000020310E2E312000808074
:101E90008000008080800081867818060100008024
:101EA0008080808080000021302C222130000000C2
:101EB000000000FC020200000000013E4040000063
:101EC0000000FF00000000000000FF000000020210
:101ED000FC000000000040403E0100000000000245
:101EE00001020204020000000000000000000000E7
:101EF00000000000000000000000000000000000E2
:101F00002B012C01241F00080000002018000000F5
:101F1000280100083C1F00081800002008070000E6
:101F20004401000801000000100000000000000053
:0C1F30000024F400020000001800002053
:04000005080000ED02
:00000001FF
